{
  "contractName": "Property",
  "abi": [
    {
      "constant": true,
      "inputs": [],
      "name": "name",
      "outputs": [
        {
          "name": "",
          "type": "string"
        }
      ],
      "payable": false,
      "stateMutability": "view",
      "type": "function"
    },
    {
      "constant": true,
      "inputs": [],
      "name": "propertyValue",
      "outputs": [
        {
          "name": "",
          "type": "uint256"
        }
      ],
      "payable": false,
      "stateMutability": "view",
      "type": "function"
    },
    {
      "constant": true,
      "inputs": [],
      "name": "INITIAL_SUPPLY",
      "outputs": [
        {
          "name": "",
          "type": "uint256"
        }
      ],
      "payable": false,
      "stateMutability": "view",
      "type": "function"
    },
    {
      "constant": true,
      "inputs": [],
      "name": "decimals",
      "outputs": [
        {
          "name": "",
          "type": "uint8"
        }
      ],
      "payable": false,
      "stateMutability": "view",
      "type": "function"
    },
    {
      "constant": true,
      "inputs": [
        {
          "name": "",
          "type": "uint256"
        }
      ],
      "name": "adopters",
      "outputs": [
        {
          "name": "",
          "type": "address"
        }
      ],
      "payable": false,
      "stateMutability": "view",
      "type": "function"
    },
    {
      "constant": true,
      "inputs": [],
      "name": "tokenSupply",
      "outputs": [
        {
          "name": "",
          "type": "uint256"
        }
      ],
      "payable": false,
      "stateMutability": "view",
      "type": "function"
    },
    {
      "constant": true,
      "inputs": [],
      "name": "tokenPrice",
      "outputs": [
        {
          "name": "",
          "type": "uint256"
        }
      ],
      "payable": false,
      "stateMutability": "view",
      "type": "function"
    },
    {
      "constant": true,
      "inputs": [],
      "name": "ownerAddress",
      "outputs": [
        {
          "name": "",
          "type": "address"
        }
      ],
      "payable": false,
      "stateMutability": "view",
      "type": "function"
    },
    {
      "constant": true,
      "inputs": [],
      "name": "symbol",
      "outputs": [
        {
          "name": "",
          "type": "string"
        }
      ],
      "payable": false,
      "stateMutability": "view",
      "type": "function"
    },
    {
      "inputs": [
        {
          "name": "_owner",
          "type": "address"
        },
        {
          "name": "_value",
          "type": "uint256"
        },
        {
          "name": "_supply",
          "type": "uint256"
        }
      ],
      "payable": false,
      "stateMutability": "nonpayable",
      "type": "constructor"
    },
    {
      "constant": false,
      "inputs": [
        {
          "name": "_seller",
          "type": "address"
        },
        {
          "name": "_buyer",
          "type": "address"
        },
        {
          "name": "_amount",
          "type": "uint256"
        }
      ],
      "name": "transferTokens",
      "outputs": [
        {
          "name": "",
          "type": "bool"
        }
      ],
      "payable": false,
      "stateMutability": "nonpayable",
      "type": "function"
    },
    {
      "constant": false,
      "inputs": [
        {
          "name": "_buyer",
          "type": "address"
        },
        {
          "name": "_amount",
          "type": "uint256"
        }
      ],
      "name": "buyTokens",
      "outputs": [
        {
          "name": "",
          "type": "bool"
        }
      ],
      "payable": false,
      "stateMutability": "nonpayable",
      "type": "function"
    },
    {
      "constant": false,
      "inputs": [
        {
          "name": "_seller",
          "type": "address"
        },
        {
          "name": "_amount",
          "type": "uint256"
        }
      ],
      "name": "sellTokens",
      "outputs": [
        {
          "name": "",
          "type": "bool"
        }
      ],
      "payable": false,
      "stateMutability": "nonpayable",
      "type": "function"
    },
    {
      "constant": true,
      "inputs": [],
      "name": "getTokenPrice",
      "outputs": [
        {
          "name": "",
          "type": "uint256"
        }
      ],
      "payable": false,
      "stateMutability": "view",
      "type": "function"
    },
    {
      "constant": true,
      "inputs": [
        {
          "name": "_address",
          "type": "address"
        }
      ],
      "name": "hasToken",
      "outputs": [
        {
          "name": "",
          "type": "bool"
        },
        {
          "name": "",
          "type": "uint256"
        }
      ],
      "payable": false,
      "stateMutability": "view",
      "type": "function"
    },
    {
      "constant": false,
      "inputs": [
        {
          "name": "_address",
          "type": "address"
        }
      ],
      "name": "addTokenOwner",
      "outputs": [],
      "payable": false,
      "stateMutability": "nonpayable",
      "type": "function"
    },
    {
      "constant": false,
      "inputs": [
        {
          "name": "petId",
          "type": "uint256"
        }
      ],
      "name": "adopt",
      "outputs": [
        {
          "name": "",
          "type": "uint256"
        }
      ],
      "payable": false,
      "stateMutability": "nonpayable",
      "type": "function"
    },
    {
      "constant": true,
      "inputs": [],
      "name": "getAdopters",
      "outputs": [
        {
          "name": "",
          "type": "address[16]"
        }
      ],
      "payable": false,
      "stateMutability": "view",
      "type": "function"
    }
  ],
  "bytecode": "0x60806040526040518060400160405280600d81526020017f50726f7065727479546f6b656e0000000000000000000000000000000000000081525060109080519060200190620000519291906200028c565b506040518060400160405280600381526020017f5253540000000000000000000000000000000000000000000000000000000000815250601190805190602001906200009f9291906200028c565b506003601260006101000a81548160ff021916908360ff1602179055506103e8601355348015620000cf57600080fd5b50604051606080620011c883398101806040526060811015620000f157600080fd5b810190808051906020019092919080519060200190929190805190602001909291905050506000821162000171576040517f08c379a0000000000000000000000000000000000000000000000000000000008152600401808060200182810382526027815260200180620011a16027913960400191505060405180910390fd5b60008111620001cc576040517f08c379a00000000000000000000000000000000000000000000000000000000081526004018080602001828103825260258152602001806200117c6025913960400191505060405180910390fd5b816015819055508060148190555082601660006101000a81548173ffffffffffffffffffffffffffffffffffffffff021916908373ffffffffffffffffffffffffffffffffffffffff16021790555060145460186000601660009054906101000a900473ffffffffffffffffffffffffffffffffffffffff1673ffffffffffffffffffffffffffffffffffffffff1673ffffffffffffffffffffffffffffffffffffffff168152602001908152602001600020819055505050506200033b565b828054600181600116156101000203166002900490600052602060002090601f016020900481019282601f10620002cf57805160ff191683800117855562000300565b8280016001018555821562000300579182015b82811115620002ff578251825591602001919060010190620002e2565b5b5090506200030f919062000313565b5090565b6200033891905b80821115620003345760008160009055506001016200031a565b5090565b90565b610e31806200034b6000396000f3fe608060405234801561001057600080fd5b506004361061010b5760003560e01c80634b94f50e116100a25780638f84aa09116100715780638f84aa09146103ed57806395d89b41146104375780639bb0f599146104ba578063a64b6e5f1461051d578063c464fe65146105a35761010b565b80634b94f50e146103515780637824407f1461036f5780637ff9b5961461038d5780638588b2c5146103ab5761010b565b8063313ce567116100de578063313ce567146102355780633de4eb17146102595780633e4159c01461029f57806343ae80d3146102e35761010b565b806306fdde03146101105780630752881a146101935780631015c682146101f95780632ff2e9dc14610217575b600080fd5b610118610609565b6040518080602001828103825283818151815260200191508051906020019080838360005b8381101561015857808201518184015260208101905061013d565b50505050905090810190601f1680156101855780820380516001836020036101000a031916815260200191505b509250505060405180910390f35b6101df600480360360408110156101a957600080fd5b81019080803573ffffffffffffffffffffffffffffffffffffffff169060200190929190803590602001909291905050506106a7565b604051808215151515815260200191505060405180910390f35b6102016107de565b6040518082815260200191505060405180910390f35b61021f6107e4565b6040518082815260200191505060405180910390f35b61023d6107ea565b604051808260ff1660ff16815260200191505060405180910390f35b6102616107fd565b6040518082601060200280838360005b8381101561028c578082015181840152602081019050610271565b5050505090500191505060405180910390f35b6102e1600480360360208110156102b557600080fd5b81019080803573ffffffffffffffffffffffffffffffffffffffff16906020019092919050505061087e565b005b61030f600480360360208110156102f957600080fd5b81019080803590602001909291905050506108fc565b604051808273ffffffffffffffffffffffffffffffffffffffff1673ffffffffffffffffffffffffffffffffffffffff16815260200191505060405180910390f35b61035961092f565b6040518082815260200191505060405180910390f35b610377610944565b6040518082815260200191505060405180910390f35b61039561094a565b6040518082815260200191505060405180910390f35b6103d7600480360360208110156103c157600080fd5b8101908080359060200190929190505050610950565b6040518082815260200191505060405180910390f35b6103f56109c1565b604051808273ffffffffffffffffffffffffffffffffffffffff1673ffffffffffffffffffffffffffffffffffffffff16815260200191505060405180910390f35b61043f6109e7565b6040518080602001828103825283818151815260200191508051906020019080838360005b8381101561047f578082015181840152602081019050610464565b50505050905090810190601f1680156104ac5780820380516001836020036101000a031916815260200191505b509250505060405180910390f35b6104fc600480360360208110156104d057600080fd5b81019080803573ffffffffffffffffffffffffffffffffffffffff169060200190929190505050610a85565b60405180831515151581526020018281526020019250505060405180910390f35b6105896004803603606081101561053357600080fd5b81019080803573ffffffffffffffffffffffffffffffffffffffff169060200190929190803573ffffffffffffffffffffffffffffffffffffffff16906020019092919080359060200190929190505050610b2f565b604051808215151515815260200191505060405180910390f35b6105ef600480360360408110156105b957600080fd5b81019080803573ffffffffffffffffffffffffffffffffffffffff16906020019092919080359060200190929190505050610c7e565b604051808215151515815260200191505060405180910390f35b60108054600181600116156101000203166002900480601f01602080910402602001604051908101604052809291908181526020018280546001816001161561010002031660029004801561069f5780601f106106745761010080835404028352916020019161069f565b820191906000526020600020905b81548152906001019060200180831161068257829003601f168201915b505050505081565b60008060019050601660009054906101000a900473ffffffffffffffffffffffffffffffffffffffff1673ffffffffffffffffffffffffffffffffffffffff166108fc829081150290604051600060405180830381858888f19350505050158015610716573d6000803e3d6000fd5b5082601860008673ffffffffffffffffffffffffffffffffffffffff1673ffffffffffffffffffffffffffffffffffffffff168152602001908152602001600020600082825401925050819055508260186000601660009054906101000a900473ffffffffffffffffffffffffffffffffffffffff1673ffffffffffffffffffffffffffffffffffffffff1673ffffffffffffffffffffffffffffffffffffffff16815260200190815260200160002060008282540392505081905550600191505092915050565b60155481565b60135481565b601260009054906101000a900460ff1681565b610805610de2565b6000601080602002604051908101604052809291908260108015610874576020028201915b8160009054906101000a900473ffffffffffffffffffffffffffffffffffffffff1673ffffffffffffffffffffffffffffffffffffffff168152602001906001019080831161082a575b5050505050905090565b600061088982610a85565b509050806108f85760198290806001815401808255809150509060018203906000526020600020016000909192909190916101000a81548173ffffffffffffffffffffffffffffffffffffffff021916908373ffffffffffffffffffffffffffffffffffffffff160217905550505b5050565b6000816010811061090957fe5b016000915054906101000a900473ffffffffffffffffffffffffffffffffffffffff1681565b60006014546015548161093e57fe5b04905090565b60145481565b60175481565b60008082101580156109635750600f8211155b61096c57600080fd5b336000836010811061097a57fe5b0160006101000a81548173ffffffffffffffffffffffffffffffffffffffff021916908373ffffffffffffffffffffffffffffffffffffffff160217905550819050919050565b601660009054906101000a900473ffffffffffffffffffffffffffffffffffffffff1681565b60118054600181600116156101000203166002900480601f016020809104026020016040519081016040528092919081815260200182805460018160011615610100020316600290048015610a7d5780601f10610a5257610100808354040283529160200191610a7d565b820191906000526020600020905b815481529060010190602001808311610a6057829003601f168201915b505050505081565b60008060008090505b601980549050811015610b1e5760198181548110610aa857fe5b9060005260206000200160009054906101000a900473ffffffffffffffffffffffffffffffffffffffff1673ffffffffffffffffffffffffffffffffffffffff168473ffffffffffffffffffffffffffffffffffffffff161415610b13576001819250925050610b2a565b600181019050610a8e565b50600080809050915091505b915091565b6000808211610b3d57600080fd5b81601860008673ffffffffffffffffffffffffffffffffffffffff1673ffffffffffffffffffffffffffffffffffffffff168152602001908152602001600020541015610b8957600080fd5b8373ffffffffffffffffffffffffffffffffffffffff166108fc83610bac61092f565b029081150290604051600060405180830381858888f19350505050158015610bd8573d6000803e3d6000fd5b5081601860008573ffffffffffffffffffffffffffffffffffffffff1673ffffffffffffffffffffffffffffffffffffffff1681526020019081526020016000206000828254019250508190555081601860008673ffffffffffffffffffffffffffffffffffffffff1673ffffffffffffffffffffffffffffffffffffffff16815260200190815260200160002060008282540392505081905550600190509392505050565b600081601860008573ffffffffffffffffffffffffffffffffffffffff1673ffffffffffffffffffffffffffffffffffffffff168152602001908152602001600020541015610ccc57600080fd5b8273ffffffffffffffffffffffffffffffffffffffff166108fc83610cef61092f565b029081150290604051600060405180830381858888f19350505050158015610d1b573d6000803e3d6000fd5b508160186000601660009054906101000a900473ffffffffffffffffffffffffffffffffffffffff1673ffffffffffffffffffffffffffffffffffffffff1673ffffffffffffffffffffffffffffffffffffffff1681526020019081526020016000206000828254019250508190555081601860008573ffffffffffffffffffffffffffffffffffffffff1673ffffffffffffffffffffffffffffffffffffffff168152602001908152602001600020600082825403925050819055506001905092915050565b60405180610200016040528060109060208202803883398082019150509050509056fea165627a7a72305820d3a8d2bf70baf745ed85b38a08900bc32e4ada993583a352a2eaa18ab7e81cf60029746f6b656e20737570706c792068617320746f2062652067726561746572207468616e203070726f70657274792076616c75652068617320746f2062652067726561746572207468616e2030",
  "source": "pragma solidity ^0.5.0;\r\n\r\ncontract Property{\r\n\taddress[16] public adopters;\r\n\r\n\t\r\n\r\n\tstring public name = \"PropertyToken\";\r\n\tstring public symbol = \"RST\";\r\n\tuint8 public decimals = 3;\r\n\tuint public INITIAL_SUPPLY = 1000;\r\n\r\n\tuint256 public tokenSupply;\r\n\tuint public propertyValue;\r\n\taddress payable public ownerAddress;\r\n\tuint256 public tokenPrice;\r\n\r\n\tmapping(address => uint256) balance;\r\n\taddress[] internal tokenOwners;\r\n\r\n\tconstructor(address payable _owner, uint _value, uint256 _supply) public {\r\n\r\n\t\t//_mint(_owner, _supply);  //passando todos os tokens para o proprietario inicial do imovel\r\n\t\trequire(_value > 0, \"property value has to be greater than 0\");\r\n\t\trequire(_supply > 0, \"token supply has to be greater than 0\");\r\n\r\n\t\t\r\n\r\n\t\tpropertyValue = _value;\r\n\t\ttokenSupply = _supply;\r\n\t\townerAddress = _owner;\r\n\r\n\t\tbalance[ownerAddress] = tokenSupply; //passando todos os tokens para o proprietario inicial do imovel\r\n\r\n\r\n\r\n\t}\r\n\r\n\r\n    function transferTokens(address payable _seller, address _buyer, uint256 _amount) public\r\n        returns (bool)\r\n    {\t\r\n\r\n        //(bool hasToken, uint256 i) = hasToken(_seller);\r\n        //_transfer(_seller, _buyer, _amount);\r\n        require(_amount > 0);\r\n        require(balance[_seller] >= _amount);\r\n        \r\n\r\n\r\n        _seller.transfer(getTokenPrice() * _amount);\r\n        balance[_buyer] += _amount;\r\n        balance[_seller] -= _amount;\r\n\r\n\r\n        return true;\r\n    }\r\n\r\n    function buyTokens(address _buyer, uint256 _amount) public\r\n        returns (bool)\r\n    {\t\r\n\r\n        //(bool hasToken, uint256 i) = hasToken(_seller);\r\n        //_transfer(_seller, _buyer, _amount);\r\n        //require(balance[ownerAddress] >= _amount);\r\n        //ownerAddress.transfer(getTokenPrice() * _amount);\r\n        uint256 x = 1;\r\n        ownerAddress.transfer(x);\r\n        balance[_buyer] += _amount;\r\n        balance[ownerAddress] -= _amount;\r\n\r\n        return true;\r\n    }\r\n\r\n    function sellTokens(address payable _seller, uint256 _amount) public\r\n        returns (bool)\r\n    {\t\r\n\r\n        //(bool hasToken, uint256 i) = hasToken(_seller);\r\n        //_transfer(_seller, _buyer, _amount);\r\n        require(balance[_seller] >= _amount);\r\n        _seller.transfer(getTokenPrice() * _amount);\r\n        balance[ownerAddress] += _amount;\r\n        balance[_seller] -= _amount;\r\n\r\n        return true;\r\n    }\r\n\r\n\r\n    function getTokenPrice() public view returns (uint256){\r\n        return propertyValue/tokenSupply;\r\n    }\r\n\r\n    function hasToken(address _address)\r\n        public\r\n        view\r\n        returns(bool, uint256)\r\n    {\r\n        for (uint256 i = 0; i < tokenOwners.length; i += 1){\r\n            if (_address == tokenOwners[i]) return (true, i);\r\n        }\r\n        return (false, 0);\r\n    }\r\n\r\n    function addTokenOwner(address _address)\r\n        public\r\n    {\r\n        (bool _hasToken, ) = hasToken(_address);\r\n        if (!_hasToken) tokenOwners.push(_address);\r\n    }\r\n\r\n\t// Adopting a pet\r\n\tfunction adopt(uint petId) public returns (uint) {\r\n\t\trequire(petId >= 0 && petId <= 15);\r\n\t\tadopters[petId] = msg.sender;\r\n\t\treturn petId;\r\n\t}\r\n\r\n\t// Retrieving the adopters\r\n\tfunction getAdopters() public view returns (address[16] memory) {\r\n\t\treturn adopters;\r\n\t}\r\n\r\n}",
  "sourcePath": "C:/Users/elijo/Desktop/Ativos/realstate/contracts/Property.sol",
  "compiler": {
    "name": "solc",
    "version": "0.5.8+commit.23d335f2.Emscripten.clang"
  },
  "schemaVersion": "3.0.16",
  "updatedAt": "2019-12-02T04:26:58.450Z",
  "devdoc": {
    "methods": {}
  },
  "userdoc": {
    "methods": {}
  }
}