{
  "contractName": "Property",
  "abi": [
    {
      "constant": true,
      "inputs": [],
      "name": "name",
      "outputs": [
        {
          "name": "",
          "type": "string"
        }
      ],
      "payable": false,
      "stateMutability": "view",
      "type": "function"
    },
    {
      "constant": true,
      "inputs": [],
      "name": "propertyValue",
      "outputs": [
        {
          "name": "",
          "type": "uint256"
        }
      ],
      "payable": false,
      "stateMutability": "view",
      "type": "function"
    },
    {
      "constant": true,
      "inputs": [],
      "name": "INITIAL_SUPPLY",
      "outputs": [
        {
          "name": "",
          "type": "uint256"
        }
      ],
      "payable": false,
      "stateMutability": "view",
      "type": "function"
    },
    {
      "constant": true,
      "inputs": [],
      "name": "decimals",
      "outputs": [
        {
          "name": "",
          "type": "uint8"
        }
      ],
      "payable": false,
      "stateMutability": "view",
      "type": "function"
    },
    {
      "constant": true,
      "inputs": [
        {
          "name": "",
          "type": "uint256"
        }
      ],
      "name": "adopters",
      "outputs": [
        {
          "name": "",
          "type": "address"
        }
      ],
      "payable": false,
      "stateMutability": "view",
      "type": "function"
    },
    {
      "constant": true,
      "inputs": [],
      "name": "tokenSupply",
      "outputs": [
        {
          "name": "",
          "type": "uint256"
        }
      ],
      "payable": false,
      "stateMutability": "view",
      "type": "function"
    },
    {
      "constant": true,
      "inputs": [],
      "name": "tokenPrice",
      "outputs": [
        {
          "name": "",
          "type": "uint256"
        }
      ],
      "payable": false,
      "stateMutability": "view",
      "type": "function"
    },
    {
      "constant": true,
      "inputs": [],
      "name": "ownerAddress",
      "outputs": [
        {
          "name": "",
          "type": "address"
        }
      ],
      "payable": false,
      "stateMutability": "view",
      "type": "function"
    },
    {
      "constant": true,
      "inputs": [],
      "name": "symbol",
      "outputs": [
        {
          "name": "",
          "type": "string"
        }
      ],
      "payable": false,
      "stateMutability": "view",
      "type": "function"
    },
    {
      "inputs": [
        {
          "name": "_owner",
          "type": "address"
        },
        {
          "name": "_value",
          "type": "uint256"
        },
        {
          "name": "_supply",
          "type": "uint256"
        }
      ],
      "payable": false,
      "stateMutability": "nonpayable",
      "type": "constructor"
    },
    {
      "constant": false,
      "inputs": [
        {
          "name": "_seller",
          "type": "address"
        },
        {
          "name": "_buyer",
          "type": "address"
        },
        {
          "name": "_amount",
          "type": "uint256"
        }
      ],
      "name": "transferTokens",
      "outputs": [
        {
          "name": "",
          "type": "bool"
        }
      ],
      "payable": false,
      "stateMutability": "nonpayable",
      "type": "function"
    },
    {
      "constant": false,
      "inputs": [
        {
          "name": "_amount",
          "type": "uint256"
        }
      ],
      "name": "buyTokens",
      "outputs": [
        {
          "name": "",
          "type": "bool"
        }
      ],
      "payable": true,
      "stateMutability": "payable",
      "type": "function"
    },
    {
      "constant": false,
      "inputs": [
        {
          "name": "_seller",
          "type": "address"
        },
        {
          "name": "_amount",
          "type": "uint256"
        }
      ],
      "name": "sellTokens",
      "outputs": [
        {
          "name": "",
          "type": "bool"
        }
      ],
      "payable": false,
      "stateMutability": "nonpayable",
      "type": "function"
    },
    {
      "constant": true,
      "inputs": [],
      "name": "getTokenPrice",
      "outputs": [
        {
          "name": "",
          "type": "uint256"
        }
      ],
      "payable": false,
      "stateMutability": "view",
      "type": "function"
    },
    {
      "constant": true,
      "inputs": [
        {
          "name": "_address",
          "type": "address"
        }
      ],
      "name": "hasToken",
      "outputs": [
        {
          "name": "",
          "type": "bool"
        },
        {
          "name": "",
          "type": "uint256"
        }
      ],
      "payable": false,
      "stateMutability": "view",
      "type": "function"
    },
    {
      "constant": false,
      "inputs": [
        {
          "name": "_address",
          "type": "address"
        }
      ],
      "name": "addTokenOwner",
      "outputs": [],
      "payable": false,
      "stateMutability": "nonpayable",
      "type": "function"
    },
    {
      "constant": false,
      "inputs": [
        {
          "name": "petId",
          "type": "uint256"
        }
      ],
      "name": "adopt",
      "outputs": [
        {
          "name": "",
          "type": "uint256"
        }
      ],
      "payable": false,
      "stateMutability": "nonpayable",
      "type": "function"
    },
    {
      "constant": true,
      "inputs": [],
      "name": "getAdopters",
      "outputs": [
        {
          "name": "",
          "type": "address[16]"
        }
      ],
      "payable": false,
      "stateMutability": "view",
      "type": "function"
    }
  ],
  "bytecode": "0x60806040526040518060400160405280600d81526020017f50726f7065727479546f6b656e000000000000000000000000000000000000008152506010908051906020019062000051929190620002a0565b506040518060400160405280600381526020017f5253540000000000000000000000000000000000000000000000000000000000815250601190805190602001906200009f929190620002a0565b506003601260006101000a81548160ff021916908360ff1602179055506103e8601355348015620000cf57600080fd5b50604051606080620011c583398101806040526060811015620000f157600080fd5b810190808051906020019092919080519060200190929190805190602001909291905050506000821162000171576040517f08c379a00000000000000000000000000000000000000000000000000000000081526004018080602001828103825260278152602001806200119e6027913960400191505060405180910390fd5b60008111620001cc576040517f08c379a0000000000000000000000000000000000000000000000000000000008152600401808060200182810382526025815260200180620011796025913960400191505060405180910390fd5b816015819055508060148190555073404402c17a8e09362114e56f708217f6b89e6786601660006101000a81548173ffffffffffffffffffffffffffffffffffffffff021916908373ffffffffffffffffffffffffffffffffffffffff16021790555060145460186000601660009054906101000a900473ffffffffffffffffffffffffffffffffffffffff1673ffffffffffffffffffffffffffffffffffffffff1673ffffffffffffffffffffffffffffffffffffffff168152602001908152602001600020819055505050506200034f565b828054600181600116156101000203166002900490600052602060002090601f016020900481019282601f10620002e357805160ff191683800117855562000314565b8280016001018555821562000314579182015b8281111562000313578251825591602001919060010190620002f6565b5b50905062000323919062000327565b5090565b6200034c91905b80821115620003485760008160009055506001016200032e565b5090565b90565b610e1a806200035f6000396000f3fe6080604052600436106100fe5760003560e01c80634b94f50e116100955780638f84aa09116100645780638f84aa091461044f57806395d89b41146104a65780639bb0f59914610536578063a64b6e5f146105a6578063c464fe6514610639576100fe565b80634b94f50e1461037f5780637824407f146103aa5780637ff9b596146103d55780638588b2c514610400576100fe565b80633610724e116100d15780633610724e1461021a5780633de4eb17146102605780633e4159c0146102b357806343ae80d314610304576100fe565b806306fdde03146101035780631015c682146101935780632ff2e9dc146101be578063313ce567146101e9575b600080fd5b34801561010f57600080fd5b506101186106ac565b6040518080602001828103825283818151815260200191508051906020019080838360005b8381101561015857808201518184015260208101905061013d565b50505050905090810190601f1680156101855780820380516001836020036101000a031916815260200191505b509250505060405180910390f35b34801561019f57600080fd5b506101a861074a565b6040518082815260200191505060405180910390f35b3480156101ca57600080fd5b506101d3610750565b6040518082815260200191505060405180910390f35b3480156101f557600080fd5b506101fe610756565b604051808260ff1660ff16815260200191505060405180910390f35b6102466004803603602081101561023057600080fd5b8101908080359060200190929190505050610769565b604051808215151515815260200191505060405180910390f35b34801561026c57600080fd5b506102756107e6565b6040518082601060200280838360005b838110156102a0578082015181840152602081019050610285565b5050505090500191505060405180910390f35b3480156102bf57600080fd5b50610302600480360360208110156102d657600080fd5b81019080803573ffffffffffffffffffffffffffffffffffffffff169060200190929190505050610867565b005b34801561031057600080fd5b5061033d6004803603602081101561032757600080fd5b81019080803590602001909291905050506108e5565b604051808273ffffffffffffffffffffffffffffffffffffffff1673ffffffffffffffffffffffffffffffffffffffff16815260200191505060405180910390f35b34801561038b57600080fd5b50610394610918565b6040518082815260200191505060405180910390f35b3480156103b657600080fd5b506103bf61092d565b6040518082815260200191505060405180910390f35b3480156103e157600080fd5b506103ea610933565b6040518082815260200191505060405180910390f35b34801561040c57600080fd5b506104396004803603602081101561042357600080fd5b8101908080359060200190929190505050610939565b6040518082815260200191505060405180910390f35b34801561045b57600080fd5b506104646109aa565b604051808273ffffffffffffffffffffffffffffffffffffffff1673ffffffffffffffffffffffffffffffffffffffff16815260200191505060405180910390f35b3480156104b257600080fd5b506104bb6109d0565b6040518080602001828103825283818151815260200191508051906020019080838360005b838110156104fb5780820151818401526020810190506104e0565b50505050905090810190601f1680156105285780820380516001836020036101000a031916815260200191505b509250505060405180910390f35b34801561054257600080fd5b506105856004803603602081101561055957600080fd5b81019080803573ffffffffffffffffffffffffffffffffffffffff169060200190929190505050610a6e565b60405180831515151581526020018281526020019250505060405180910390f35b3480156105b257600080fd5b5061061f600480360360608110156105c957600080fd5b81019080803573ffffffffffffffffffffffffffffffffffffffff169060200190929190803573ffffffffffffffffffffffffffffffffffffffff16906020019092919080359060200190929190505050610b18565b604051808215151515815260200191505060405180910390f35b34801561064557600080fd5b506106926004803603604081101561065c57600080fd5b81019080803573ffffffffffffffffffffffffffffffffffffffff16906020019092919080359060200190929190505050610c67565b604051808215151515815260200191505060405180910390f35b60108054600181600116156101000203166002900480601f0160208091040260200160405190810160405280929190818152602001828054600181600116156101000203166002900480156107425780601f1061071757610100808354040283529160200191610742565b820191906000526020600020905b81548152906001019060200180831161072557829003601f168201915b505050505081565b60155481565b60135481565b601260009054906101000a900460ff1681565b6000601660009054906101000a900473ffffffffffffffffffffffffffffffffffffffff1673ffffffffffffffffffffffffffffffffffffffff166108fc836107b0610918565b029081150290604051600060405180830381858888f193505050501580156107dc573d6000803e3d6000fd5b5060019050919050565b6107ee610dcb565b600060108060200260405190810160405280929190826010801561085d576020028201915b8160009054906101000a900473ffffffffffffffffffffffffffffffffffffffff1673ffffffffffffffffffffffffffffffffffffffff1681526020019060010190808311610813575b5050505050905090565b600061087282610a6e565b509050806108e15760198290806001815401808255809150509060018203906000526020600020016000909192909190916101000a81548173ffffffffffffffffffffffffffffffffffffffff021916908373ffffffffffffffffffffffffffffffffffffffff160217905550505b5050565b600081601081106108f257fe5b016000915054906101000a900473ffffffffffffffffffffffffffffffffffffffff1681565b60006014546015548161092757fe5b04905090565b60145481565b60175481565b600080821015801561094c5750600f8211155b61095557600080fd5b336000836010811061096357fe5b0160006101000a81548173ffffffffffffffffffffffffffffffffffffffff021916908373ffffffffffffffffffffffffffffffffffffffff160217905550819050919050565b601660009054906101000a900473ffffffffffffffffffffffffffffffffffffffff1681565b60118054600181600116156101000203166002900480601f016020809104026020016040519081016040528092919081815260200182805460018160011615610100020316600290048015610a665780601f10610a3b57610100808354040283529160200191610a66565b820191906000526020600020905b815481529060010190602001808311610a4957829003601f168201915b505050505081565b60008060008090505b601980549050811015610b075760198181548110610a9157fe5b9060005260206000200160009054906101000a900473ffffffffffffffffffffffffffffffffffffffff1673ffffffffffffffffffffffffffffffffffffffff168473ffffffffffffffffffffffffffffffffffffffff161415610afc576001819250925050610b13565b600181019050610a77565b50600080809050915091505b915091565b6000808211610b2657600080fd5b81601860008673ffffffffffffffffffffffffffffffffffffffff1673ffffffffffffffffffffffffffffffffffffffff168152602001908152602001600020541015610b7257600080fd5b8373ffffffffffffffffffffffffffffffffffffffff166108fc83610b95610918565b029081150290604051600060405180830381858888f19350505050158015610bc1573d6000803e3d6000fd5b5081601860008573ffffffffffffffffffffffffffffffffffffffff1673ffffffffffffffffffffffffffffffffffffffff1681526020019081526020016000206000828254019250508190555081601860008673ffffffffffffffffffffffffffffffffffffffff1673ffffffffffffffffffffffffffffffffffffffff16815260200190815260200160002060008282540392505081905550600190509392505050565b600081601860008573ffffffffffffffffffffffffffffffffffffffff1673ffffffffffffffffffffffffffffffffffffffff168152602001908152602001600020541015610cb557600080fd5b8273ffffffffffffffffffffffffffffffffffffffff166108fc83610cd8610918565b029081150290604051600060405180830381858888f19350505050158015610d04573d6000803e3d6000fd5b508160186000601660009054906101000a900473ffffffffffffffffffffffffffffffffffffffff1673ffffffffffffffffffffffffffffffffffffffff1673ffffffffffffffffffffffffffffffffffffffff1681526020019081526020016000206000828254019250508190555081601860008573ffffffffffffffffffffffffffffffffffffffff1673ffffffffffffffffffffffffffffffffffffffff168152602001908152602001600020600082825403925050819055506001905092915050565b60405180610200016040528060109060208202803883398082019150509050509056fea165627a7a72305820d3e72dce50b5aa3d0a08c651e1ede85deeab49c24c8a98b8c9c41562ca5920a20029746f6b656e20737570706c792068617320746f2062652067726561746572207468616e203070726f70657274792076616c75652068617320746f2062652067726561746572207468616e2030",
  "source": "pragma solidity ^0.5.0;\r\n\r\ncontract Property{\r\n\taddress[16] public adopters;\r\n\r\n\t\r\n\r\n\tstring public name = \"PropertyToken\";\r\n\tstring public symbol = \"RST\";\r\n\tuint8 public decimals = 3;\r\n\tuint public INITIAL_SUPPLY = 1000;\r\n\r\n\tuint256 public tokenSupply;\r\n\tuint public propertyValue;\r\n\taddress payable public ownerAddress;\r\n\tuint256 public tokenPrice;\r\n\r\n\tmapping(address => uint256) balance;\r\n\taddress[] internal tokenOwners;\r\n\r\n\tconstructor(address payable _owner, uint _value, uint256 _supply) public {\r\n\r\n\t\t//_mint(_owner, _supply);  //passando todos os tokens para o proprietario inicial do imovel\r\n\t\trequire(_value > 0, \"property value has to be greater than 0\");\r\n\t\trequire(_supply > 0, \"token supply has to be greater than 0\");\r\n\r\n\t\t\r\n\r\n\t\tpropertyValue = _value;\r\n\t\ttokenSupply = _supply;\r\n\t\townerAddress = 0x404402C17A8e09362114e56F708217F6b89e6786;\r\n\r\n\t\tbalance[ownerAddress] = tokenSupply; //passando todos os tokens para o proprietario inicial do imovel\r\n\r\n\r\n\r\n\t}\r\n\r\n\r\n    function transferTokens(address payable _seller, address _buyer, uint256 _amount) public\r\n        returns (bool)\r\n    {\t\r\n\r\n        //(bool hasToken, uint256 i) = hasToken(_seller);\r\n        //_transfer(_seller, _buyer, _amount);\r\n        require(_amount > 0);\r\n        require(balance[_seller] >= _amount);\r\n        \r\n\r\n\r\n        _seller.transfer(getTokenPrice() * _amount);\r\n        balance[_buyer] += _amount;\r\n        balance[_seller] -= _amount;\r\n\r\n\r\n        return true;\r\n    }\r\n\r\n    function buyTokens( uint256 _amount) public\r\n    payable\r\n        returns (bool)\r\n    {\t\r\n\r\n        //(bool hasToken, uint256 i) = hasToken(_seller);\r\n        //_transfer(_seller, _buyer, _amount);\r\n        //require(balance[ownerAddress] >= _amount);\r\n        //ownerAddress.transfer(getTokenPrice() * _amount);\r\n        //uint256 x = 1;\r\n        ownerAddress.transfer(getTokenPrice() * _amount);\r\n        //balance[_buyer] += _amount;\r\n        //balance[ownerAddress] -= _amount;\r\n\r\n        return true;\r\n    }\r\n\r\n    function sellTokens(address payable _seller, uint256 _amount) public\r\n        returns (bool)\r\n    {\t\r\n\r\n        //(bool hasToken, uint256 i) = hasToken(_seller);\r\n        //_transfer(_seller, _buyer, _amount);\r\n        require(balance[_seller] >= _amount);\r\n        _seller.transfer(getTokenPrice() * _amount);\r\n        balance[ownerAddress] += _amount;\r\n        balance[_seller] -= _amount;\r\n\r\n        return true;\r\n    }\r\n\r\n\r\n    function getTokenPrice() public view returns (uint256){\r\n        return propertyValue/tokenSupply;\r\n    }\r\n\r\n    function hasToken(address _address)\r\n        public\r\n        view\r\n        returns(bool, uint256)\r\n    {\r\n        for (uint256 i = 0; i < tokenOwners.length; i += 1){\r\n            if (_address == tokenOwners[i]) return (true, i);\r\n        }\r\n        return (false, 0);\r\n    }\r\n\r\n    function addTokenOwner(address _address)\r\n        public\r\n    {\r\n        (bool _hasToken, ) = hasToken(_address);\r\n        if (!_hasToken) tokenOwners.push(_address);\r\n    }\r\n\r\n\t// Adopting a pet\r\n\tfunction adopt(uint petId) public returns (uint) {\r\n\t\trequire(petId >= 0 && petId <= 15);\r\n\t\tadopters[petId] = msg.sender;\r\n\t\treturn petId;\r\n\t}\r\n\r\n\t// Retrieving the adopters\r\n\tfunction getAdopters() public view returns (address[16] memory) {\r\n\t\treturn adopters;\r\n\t}\r\n\r\n}",
  "sourcePath": "C:/Users/elijo/Desktop/Ativos/realstate/contracts/Property.sol",
  "compiler": {
    "name": "solc",
    "version": "0.5.8+commit.23d335f2.Emscripten.clang"
  },
  "schemaVersion": "3.0.16",
  "updatedAt": "2019-12-02T17:21:35.218Z",
  "devdoc": {
    "methods": {}
  },
  "userdoc": {
    "methods": {}
  }
}